:030000000210F0FB
:0C10F000787FE4F6D8FD75810702113707
:0C12C0001212D31212CC12126902128317
:10126900E4FFFE75B1670FBF00010EBE0BF8BFB8F2
:09127900F5E5B130E7FB43B208D2
:011282002249
:0412D30053EF1022A3
:0712CC0075FFDE75FFAD2286
:1012830075E10675E21075E34443A40943A62153AF
:09129300A0FE53A4CB43803022DD
:10124B00C2F8C2F9C2FCC2FDC2FEC2FF439A80754E
:0E125B009D0443E60143F601759BEED2F82296
:0D0036004A051C0000000000000000000052
:100D5900C2AF1212C012122712124B12129C121297
:100D6900B0D2AFE4900529F0A3F0900529E0FEA3E5
:100D7900E0FFC3940AEE64809480502AEF25E0FFD7
:100D8900EE33FE741C2FF58274053EF583E0FEA355
:100D9900E064014E601090052AE004F070CC9005E3
:100DA90029E004F080C4900529E0FEA3E0FFEE707D
:100DB900B2EF14606E147003020E76147003020E03
:100DC900D0147003020F1A240470987B017A0379F6
:100DD9001812117C7FEE1212D7E4900527F0A3F0C8
:100DE900C3900528E094FF900527E0648094805023
:100DF90017E475F00112099EFE741825F0F5827446
:100E0900033EF583E4F080D890052AE025E0FF90C1
:100E19000529E033FE741C2FF58274053EF583E441
:100E2900F0A3F0E4900527F0A3F0C3900528E0941F
:100E3900FF900527E0648094805017E475F0011253
:100E4900099EFE741425F0F58274023EF583E4F0E0
:100E590080D890052AE025E0FF900529E033FE744B
:100E69001C2FF58274053EF583E4F0A3F090041875
:100E7900E0FF121056900526EFF01212D7E4900504
:100E890027F0A3F0C3900528E094FF900527E064BC
:100E99008094805017E475F00112099EFE7418259C
:100EA900F0F58274043EF583E4F080D890052AE0D9
:100EB90025E0FF900529E033FE741C2FF5827405A7
:100EC9003EF583E4F0A3F0E4900527F0A3F0C39086
:100ED9000528E094FF900527E0648094805017E48A
:100EE90075F00112099EFE741425F0F58274013E15
:100EF900F583E4F080D890052AE025E0FF900529E4
:100F0900E033FE741C2FF58274053EF583E4F0A3EB
:100F1900F0E4900527F0A3F0C3900528E094FF9032
:100F29000527E0648094805017E475F00112099E4A
:100F3900FE741425F0F58274003EF583E4F080D840
:100F490090052AE025E0FF900529E033FE741C2F67
:0E0F5900F58274053EF583E4F0A3F0020D6C02
:03002B0002002EA2
:05002E00C2CFB2A032B8
:030033000211E5D2
:1011E500C0E0C0F0C083C082C0D075D000C000C0D0
:1011F50001C002C003C004C005C006C007C2FF127B
:1012050009DF7FEE1212D7D007D006D005D004D063
:1012150003D002D001D000D0D0D082D083D0F0D07E
:02122500E032B5
:0510560090052BEFF0F6
:10105B00E4A3F0A3F0AC071208417B0A7AD77923FB
:10106B00783C120691E4FBFA79C0783F1205A09008
:10107B00052E1209D37FCD7ECC7DAC7C4690052E00
:10108B00E0F8A3E0F9A3E0FAA3E0FB120691E4FB7E
:10109B00FA7940784112079AA804A905AA06AB076A
:1010AB007F007EFF7D7F7C4712059C120F67120825
:1010BB0075C2CA8FCAEEFF8FCBD2CAC390052DE083
:1010CB00943290052CE064809480501130CFECA3C7
:1010DB00E004F070E690052CE004F080DEC2CA90CC
:0410EB00052BE0FFF2
:0110EF0022DE
:10122700C2CA538EDFC2CFC2CEC2CDC2CC53C8FC16
:10123700C2CBE4F5CAF5CB75CCFF75CDFFD2BDD2D5
:04124700ADC2CA2248
:1000430042000A0000420006000042000E00004287
:1000530000020000420518000042031400004200A1
:10006300000000420012000042000C00024200089F
:1000730000024200100002420004000242051A007E
:1000830002610003180000000000000000000000EF
:10009300000000000000000000000000000000005D
:1000A300000000000000000000000000000000004D
:1000B300000000000000000000000000000000003D
:1000C300000000000000000000000000000000002D
:1000D300000000000000000000000000000000001D
:1000E300000000000000000000000000000000000D
:1000F30000000000000000000000000000000000FD
:1001030000000000000000000000000000000000EC
:1001130000000000000000000000000000000000DC
:1001230000000000000000000000000000000000CC
:1001330000000000000000000000000000000000BC
:1001430000000000000000000000000000000000AC
:10015300000000000000000000000000000000009C
:10016300000000000000000000000000000000008C
:10017300000000000000000000000000000000007C
:1001830000000000006100021400000000000000F5
:10019300000000000000000000000000000000005C
:1001A300000000000000000000000000000000004C
:1001B300000000000000000000000000000000003C
:1001C300000000000000000000000000000000002C
:1001D300000000000000000000000000000000001C
:1001E300000000000000000000000000000000000C
:1001F30000000000000000000000000000000000FC
:1002030000000000000000000000000000000000EB
:1002130000000000000000000000000000000000DB
:1002230000000000000000000000000000000000CB
:1002330000000000000000000000000000000000BB
:1002430000000000000000000000000000000000AB
:10025300000000000000000000000000000000009B
:10026300000000000000000000000000000000008B
:10027300000000000000000000000000000000007B
:1002830000000000000000000061000418000000EE
:10029300000000000000000000000000000000005B
:1002A300000000000000000000000000000000004B
:1002B300000000000000000000000000000000003B
:1002C300000000000000000000000000000000002B
:1002D300000000000000000000000000000000001B
:1002E300000000000000000000000000000000000B
:1002F30000000000000000000000000000000000FB
:1003030000000000000000000000000000000000EA
:1003130000000000000000000000000000000000DA
:1003230000000000000000000000000000000000CA
:1003330000000000000000000000000000000000BA
:1003430000000000000000000000000000000000AA
:10035300000000000000000000000000000000009A
:10036300000000000000000000000000000000008A
:10037300000000000000000000000000000000007A
:100383000000000000000000000000000061000108
:100393001400000000000000000000000000000046
:1003A300000000000000000000000000000000004A
:1003B300000000000000000000000000000000003A
:1003C300000000000000000000000000000000002A
:1003D300000000000000000000000000000000001A
:1003E300000000000000000000000000000000000A
:1003F30000000000000000000000000000000000FA
:1004030000000000000000000000000000000000E9
:1004130000000000000000000000000000000000D9
:1004230000000000000000000000000000000000C9
:1004330000000000000000000000000000000000B9
:1004430000000000000000000000000000000000A9
:100453000000000000000000000000000000000099
:100463000000000000000000000000000000000089
:100473000000000000000000000000000000000079
:100483000000000000000000000000000000000069
:1004930000610000140000000000000000000000E4
:1004A3000000000000000000000000000000000049
:1004B3000000000000000000000000000000000039
:1004C3000000000000000000000000000000000029
:1004D3000000000000000000000000000000000019
:1004E3000000000000000000000000000000000009
:1004F30000000000000000000000000000000000F9
:1005030000000000000000000000000000000000E8
:1005130000000000000000000000000000000000D8
:1005230000000000000000000000000000000000C8
:1005330000000000000000000000000000000000B8
:1005430000000000000000000000000000000000A8
:100553000000000000000000000000000000000098
:100563000000000000000000000000000000000088
:100573000000000000000000000000000000000078
:100583000000000000000000000000000000000068
:05059300000000000063
:0312D7008F9B22C8
:1009DF00E59BB4D144D3900315E09400900314E049
:1009EF0064809480401090000CE4F0A37402F0E453
:1009FF00900314F0A3F090000BE004F07006900049
:100A0F000AE004F090000AE07004A3E064026003BF
:100A1F00020D5890000A020B48E59BB4D244D390C4
:100A2F000315E09400900314E064809480401090CC
:100A3F000008E4F0A37402F0E4900314F0A3F09024
:100A4F000007E004F07006900006E004F090000646
:100A5F00E07004A3E064026003020D5890000602E8
:100A6F000B48E59BB4D344D3900315E09400900357
:100A7F0014E0648094804010900010E4F0A374029E
:100A8F00F0E4900314F0A3F090000FE004F0700670
:100A9F0090000EE004F090000EE07004A3E06402FA
:100AAF006003020D5890000E020B48E59BB4D4432F
:100ABF00D3900315E09400900314E0648094804079
:100ACF0010900004E4F0A37402F0E4900314F0A378
:100ADF00F0900003E004F07006900002E004F09044
:100AEF000002E07004A3E064026003020D5890005E
:100AFF00028046E59BB4D549D3900315E09400904E
:100B0F000314E064809480401090051AE4F0A374FD
:100B1F0002F0E4900314F0A3F0900519E004F070D4
:100B2F0006900518E004F0900518E07004A3E06447
:100B3F00026003020D58900518F0A3F0A3F0A3F084
:100B4F0022E59BB4FF5BE490000AF0A3F09000064F
:100B5F00F0A3F090000EF0A3F0900002F0A3F0903D
:100B6F000518F0A3F0900314F0A3F0900013E00425
:100B7F00F07006900012E004F0900001E004F070B5
:100B8F0006900000E004F0900012E07004A3E0640F
:100B9F00036003020C91900000F0A37402F0020CAA
:100BAF009190000CE07002A3E07024900314E0FE1B
:100BBF00A3E02418F58274033EF583E59BF09003C0
:100BCF0015E004F07034900314E004F0020C9190DF
:100BDF000008E07002A3E07024900314E0FEA3E08D
:100BEF002414F58274023EF583E59BF0900315E023
:100BFF0004F07006900314E004F0020C91900010C2
:100C0F00E07002A3E07023900314E0FEA3E0241829
:100C1F00F58274043EF583E59BF0900315E004F034
:100C2F007006900314E004F08058900004E0700206
:100C3F00A3E07023900314E0FEA3E02414F5827464
:100C4F00013EF583E59BF0900315E004F0703390BF
:100C5F000314E004F0802B90051AE07002A3E070FB
:100C6F0021900314E0FEA3E02414F58274003EF5F6
:100C7F0083E59BF0900315E004F07006900314E0F9
:100C8F0004F0900000E0FEA3E0FF64024E701E909F
:100C9F00000CE07002A3E0701490051CF0A304F0A8
:100CAF00E4900000F0A3F090000C020D53EF6402EB
:100CBF004E701D900008E07002A3E0701390051EA7
:100CCF00F0A304F0E4900000F0A3F090000880740B
:100CDF00900000E07004A3E06402701D900010E02B
:100CEF007002A3E07013900520F0A304F0E49000CD
:100CFF0000F0A3F0900010804B900000E0FEA3E006
:100D0F00FF64024E701D900004E07002A3E07013A8
:100D1F00900522F0A304F0E4900000F0A3F09000FF
:100D2F00048021EF64024E702090051AE07002A338
:100D3F00E07016900524F0A304F0E4900000F0A3F7
:0A0D4F00F090051AF0A37402F022E0
:10000300E4FBFA3099FD3099058F99C29922E4FAFD
:10001300FB000BBB00010ABA01F7BB2CF41DEDD3A7
:06002300940050DF7F0095
:0100290022B4
:10117C0090052FE4F0A37404F07E6490052CEBF042
:10118C00A3EAF0A3E9F0D3900530E0940090052F8A
:10119C00E064809480403390052CE0FBA3E0FAA33C
:1011AC00E0F912096FFFAD0612000390052BEFF06A
:1011BC00900530E024FFF090052FE034FFF090050F
:1011CC002DE475F00112098880BCAF06AD077FDEF7
:0811DC0012000390052BEFF057
:0111E40022E8
:10129C00438E1043892053892FE4F58B758DF4C24E
:0412AC00ABD28E2211
:1012B000C2CCC2CD4387805387BF759870D2992224
:100599000208E1E86480F8E933E83360110460F0A7
:1005A900ED33EC337009E8FCE9FDEAFEEBFF2204C8
:1005B90060DED3EB9FEA9EE99DE8C2E78CF0C2F7C3
:1005C90095F0400CE8CCF8E9CDF9EACEFAEBCFFB8F
:1005D9001208AC85D0F05804700320D5B3E8047034
:1005E900075002B2D50208EB92D5EC0460F7E4CCCF
:1005F900C0E0C398F8603B94186008400DD0E0FB58
:100609000208C3E4FBFAC9FC8028E830E406E4C91F
:10061900FBE4CAFCE830E305E4C9CACBFCE85407AB
:100629006010F8C3E913F9EA13FAEB13FBEC13FCB6
:10063900D8F130F52FC3E49CFCEF9BFFEE9AFEED59
:1006490099FDD0E0FBEF4E4D4C701222DB030208FE
:10065900E8EC2CFCEF33FFEE33FEED33FDED30E734
:10066900EB0208C3EF2BFFEE3AFEED39FDD0E0FBBC
:1006790050130BBB00030208EBED13FDEE13FEEF65
:0806890013FFEC13FC0208C38F
:10069100EC4D6011E8497017ED33EC3304600DE463
:1006A100FCFFFEFD22E933E8330470F80208E11291
:1006B10008AC58046009E4CC248150062850090292
:1006C10008EB2840030208E8C0E0EB4A7044B98017
:1006D10006D0E0FB0208D7EF4E701CBD8008EBFF8F
:1006E100EAFEE9FD80EBE98DF0A4FEE5F002077A70
:1006F100E9CDF9EAFEEBFFEF89F0A4FCE5F0CE8944
:10070100F0A42EFFE435F0CD89F0A42DFEE435F000
:100711008067EF4E7005BD80D780C3EF8BF0A4AC2E
:10072100F0EE8BF0A42CFCE435F0F8EF8AF0A42C69
:10073100E5F038FCE433CB8DF0A42CFCE5F03BF87C
:10074100EE8AF0A42CFCE5F038F8E433CF89F0A46C
:100751002CFCE5F038CF3400CE89F0A42FFFE5F072
:100761003EFEE433C98DF0A42EFEE5F039CD8AF0CA
:10077100A42FFFE5F03EFEE43DFD33D0E0FB500742
:100781000BBB000F0208EBEC2CFCEF33FFEE33FE4A
:06079100ED33FD0208C378
:100797000208EBEC5D046005E8590470030208E108
:1007A7001208AC580460F6EC4860F2EC7004FDFEE9
:1007B700FF22C860DB2481C85009C3986002500635
:1007C7000208E89850CAF582E9294B4A7005AB82BE
:1007D7000208D775F0007C1A7880C3EF9BEE9AED7C
:1007E70099400DC3EF9BFFEE9AFEED99FDE842F0AD
:1007F700DC23ACF0D0E0FFD0E0FED0E0FDAB822000
:10080700E7101BEB60BAEC2CFCEF33FFEE33FEED89
:1008170033FD0208C3E803F830E705C0F075F000C0
:10082700EF2FFFEE33FEED33FD40B830E7C280AA6D
:1008370075F020800E75F010800575F0087D007E3C
:10084700007F003392D530D5031209B4EC33401042
:10085700EF33FFEE33FEED33FDEC33FCD5F0ED2245
:0E086700E5F0247EA2D513CC92E7CDCEFF2281
:10087500EDD2E7CD33EC3392D524814006E4FFFE7B
:10088500FDFC22FCE4CFCECDCC24E0501174FF80DA
:10089500EDC3CC13CCCD13CDCE13CECF13CF047077
:0708A500F030D5DE0209B4BA
:100F67009005321209D374FFFFFEFDFC900532E0B5
:100F7700F8A3E0F9A3E0FAA3E0FBC31209C26038C3
:100F87007F807E967D187C4B900532E0F8A3E0F9D0
:100F9700A3E0FAA3E0FB1208F66002501B7F807EF5
:100FA700967D187CCB900532E0F8A3E0F9A3E0FA30
:100FB700A3E0FB1208F6500F900532E0FCA3E0FD1A
:100FC700A3E0FEA3E0FF22900532E0FCA3E0FDA32F
:100FD700E0FEA3E0FF1208759005361209D39005CD
:100FE70036E0FCA3E0FDA3E0FEA3E0FFEC12083728
:100FF700C8ECC8C9EDC9CAEECACBEFCB900532E041
:10100700FCA3E0FDA3E0FEA3E0FF12059CE4FBFACE
:10101700F9F81208F65025900536E0FCA3E0FDA389
:10102700E0FEA3E0FFE4FAF9F8EF2401FFEA3EFE51
:10103700E93DFDE83CFC9005361209D3900536E002
:0F104700FCA3E0FDA3E0FEA3E0FFEC12083722BC
:1008AC00E9D2E7C933E833F892D5EDD2E7CD33EC92
:0708BC0033FC5002B2D5220B
:1008C300EC30E7100FBF000C0EBE00080DBD000496
:1008D3000BEB6014A2D5EB13FCED92E7FD2274FF42
:1008E300FCFDFEFF22E480F8A2D574FF13FC7D809B
:0308F300E480EFAF
:1008F60074F8CC6480CCC86480C8F58204604FC3A9
:10090600EB9FF5F0EA9E42F0E99D42F0E89C45F047
:10091600603C501DE5825FFFE582D313CB5BCBF4D1
:100926002B5582FB50280ABA002409B900200880FA
:100936001DE5825BFBE582D313CF5FCFF4C3132F94
:100946005582FF50090EBE00050DBD00010CC3EB1C
:100956009FF5F0EA9E42F0E99D42F0E89C45F06082
:0909660007CC4820E701B3EC22A4
:1010FC00020D59E493A3F8E493A34003F68001F2A4
:10110C0008DFF48029E493A3F85407240CC8C333F4
:10111C00C4540F4420C8834004F456800146F6DFC3
:10112C00E4800B0102040810204080900036E47E1D
:10113C00019360BCA3FF543F30E509541FFEE493B8
:10114C00A360010ECF54C025E060A840B8E493A37F
:10115C00FAE493A3F8E493A3C8C582C8CAC583CAAA
:10116C00F0A3C8C582C8CAC583CADFE9DEE780BE62
:010598000062
:10096F00BB010689828A83E0225002E722BBFE0286
:09097F00E32289828A83E49322B9
:10098800C5F0F8A3E028F0C5F0F8E58215827002FA
:060998001583E038F02297
:10099E00A3F8E0C5F025F0F0E5821582700215830C
:0609AE00E0C838F0E82269
:0E09B400C3E49FFFE49EFEE49DFDE49CFC2254
:1009C200EB9FF5F0EA9E42F0E99D42F0E89C45F08B
:0109D2002202
:0C09D300ECF0A3EDF0A3EEF0A3EFF02297
:00000001FF
